S00C0000544C4E532E73726563D7
S11300000C94FE000C9424010C9424010C942401FF
S11300100C9424010C9424010C9424010C942401C8
S11300200C9424010C9424010C9424010C942401B8
S11300300C9424010C9424010C9424010C942401A8
S11300400C9424010C9424010C9424010C94240198
S11300500C9424010C9424010C9424010C94240188
S11300600C9424010C9424010C9424010C94240178
S11300700C9424010C9424010C9424010C94240168
S11300800C9424010C9424010C9424010C94240158
S11300900C9424010C9424010C9424010C94240148
S11300A00C9424010C9424010C9424010C94240138
S11300B00C9424010C9424010C9424010C94240128
S11300C00C9424010C9424010C9424010C94240118
S11300D00C9424010C9424010C9424010C94240108
S11300E00C9424010C9424010C9424010C942401F8
S11300F00C9424010C9424010C9424010C942401E8
S11301000C9424010C9424010C9424010C942401D7
S11301100C9424010C9424010C9424010C942401C7
S11301200C9424010C9424010C9424010C942401B7
S11301300C9424010C9424010C9424010C942401A7
S11301400C9424010C9424010C9424010C94240197
S11301500C9424010C9424010C9424010C94240187
S11301600C9424010C9424010C9424010C94240177
S11301700C9424010C9424010C9424010C94240167
S11301800C9424010C9424010C9424010C94240157
S11301900C9424010C9424010C9424010C94240147
S11301A00C9424010C9424010C9424010C94240137
S11301B00C9424010C9424010C9424010C94240127
S11301C00C9424010C9424010C9424010C94240117
S11301D00C9424010C9424010C9424010C94240107
S11301E00C9424010C9424010C9424010C942401F7
S11301F00C9424010C9424010C94240111241FBE9A
S1130200CFEFCDBFDFE3DEBF00E00CBF18BE19BEE9
S11302101ABE1BBE10E2A0E0B0E2E2E5FAE000E0A4
S11302200BBF02C007900D92A630B107D9F71BBED1
S113023020E2A6E0B0E201C01D92A531B207E1F7C9
S11302400E944C030C9427050C94000010920006A5
S113025010922006109240061092600610928006BA
S11302601092A0061092E006109200071092200748
S113027082E08093C0078093C4071092E00708953A
S113028080910420853020F481E08093052012C001
S11302909BEF980F943020F482E0809305200AC0ED
S11302A08950843020F483E08093052003C084E0E7
S11302B08093052080910620882349F18FE780935D
S11302C000068091062080930406809105208823EF
S11302D051F080E096E09A95F1F700C08F5F90911D
S11302E005208917B8F38FE78093070680910520CE
S11302F0882351F080E096E09A95F1F700C08F5F73
S1130300909105208917B8F3109200060895809102
S11303100720882349F18FEF8093200680910720DE
S11303208093240680910520882351F080E096E094
S11303309A95F1F700C08F5F909105208917B8F363
S11303408FEF8093270680910520882351F080E069
S113035096E09A95F1F700C08F5F90910520891778
S1130360B8F310922006089580910820882349F15B
S11303708FEF8093400680910820809344068091FB
S11303800520882351F080E096E09A95F1F700C0AB
S11303908F5F909105208917B8F38FEF80934706FC
S11303A080910520882351F080E096E09A95F1F73A
S11303B000C08F5F909105208917B8F31092400612
S11303C0089580910920882349F18FEF8093600676
S11303D0809109208093640680910520882351F040
S11303E080E096E09A95F1F700C08F5F9091052028
S11303F08917B8F38FEF80936706809105208823CF
S113040051F080E096E09A95F1F700C08F5F9091EB
S113041005208917B8F310926006089580910A2088
S1130420882349F18FEF8093800680910A2080937E
S1130430840680910520882351F080E096E09A9507
S1130440F1F700C08F5F909105208917B8F38FEF03
S11304508093870680910520882351F080E096E000
S11304609A95F1F700C08F5F909105208917B8F332
S113047010928006089580910B20882349F18FEF14
S11304808093A00680910B208093A4068091052080
S1130490882351F080E096E09A95F1F700C08F5FD1
S11304A0909105208917B8F38FEF8093A706809168
S11304B00520882351F080E096E09A95F1F700C07A
S11304C08F5F909105208917B8F31092A0060895C4
S11304D080910C20882349F18FEF8093E00680916E
S11304E00C208093E40680910520882351F080E05D
S11304F096E09A95F1F700C08F5F909105208917D7
S1130500B8F38FEF8093E70680910520882351F09C
S113051080E096E09A95F1F700C08F5F90910520F6
S11305208917B8F31092E006089580910D2088236E
S113053049F18FEF8093000780910D208093040789
S113054080910520882351F080E096E09A95F1F798
S113055000C08F5F909105208917B8F38FEF8093C7
S1130560070780910520882351F080E096E09A9552
S1130570F1F700C08F5F909105208917B8F31092AE
S11305800007089580910E20882349F18FEF80930E
S1130590200780910E2080932407809105208823D2
S11305A051F080E096E09A95F1F700C08F5F90914A
S11305B005208917B8F38FEF8093270780910520D2
S11305C0882351F080E096E09A95F1F700C08F5FA0
S11305D0909105208917B8F310922007089580910F
S11305E00F20882361F18EEF8093C00780910F2044
S11305F08093C40780910520882351F080E096E021
S11306009A95F1F700C08F5F909105208917B8F390
S11306108FEF8093C70780910520882351F080E0F5
S113062096E09A95F1F700C08F5F909105208917A5
S1130630B8F382E08093C0078093C5070895809142
S11306401020882341F18FEF8093E00780911020E0
S11306508093E40780910520882351F080E096E0A0
S11306609A95F1F700C08F5F909105208917B8F330
S11306708FEF8093E70780910520882351F080E075
S113068096E09A95F1F700C08F5F90910520891745
S1130690B8F31092E00708950E9426010F2EF1E1AD
S11306A06F2EF0E27F2EF02D0F2EFAE02F2E312C3C
S11306B0F02D0F2EF6E04F2EF0E25F2EF02D689411
S11306C0882481F8912C6894CC24C6F8D12C6894A1
S11306D0AA24A7F8B12C08EC17E0EE24E394F12C3B
S11306E0E6E0F0E211926E167F06E1F70E94B5048F
S11306F0B1010E944204EC01811111C00E94B504B1
S1130700DD27CA5FDF4D67E070E00E944204F60116
S113071002C0F595E7958A95E2F7E88372C08150A7
S11307208830A8F40E94B504DD27CA5FDF4D8770C6
S11307309078992324F40197886F9F6F019695010F
S113074002C0359527958A95E2F728835AC00E94FE
S1130750B50481709078992324F401978E6F9F6F6C
S113076001960197D9F40E94B504EC010E94B504E6
S11307709C01CE0169E070E00E944204FC01EA5F42
S1130780FF4DC90167E070E00E944204960102C077
S1130790359527958A95E2F7208333C00E94B504E6
S11307A081709078992324F401978E6F9F6F01963E
S11307B00197A9F40E94B50481709078992324F4D8
S11307C001978E6F9F6F0196E8E0F0E002C0F59507
S11307D0E7958A95E2F7CF01F201818712C00E9462
S11307E0B50481709078992324F401978E6F9F6FDC
S11307F00196940102C0359527958A95E2F7F20196
S11308002287F801808180FD0BC0E0921120F092D4
S113081012208091132090911420892BC9F424C0B4
S1130820109211201092122013C030E0F6E0FA95D5
S1130830F1F700C03F5F432F50E0209104206AEF9E
S11308406203C001112488589F4F4817590774F355
S11308508091112090911220809313209093142062
S113086082E08093C5073CCF0E9440012091042080
S11308703AEF3203C001112488589F4F1816190605
S1130880A4F2E6CF97FB072E16F4009407D077FD69
S113089009D00E94560407FC05D03EF4909581953A
S11308A09F4F0895709561957F4F0895AA1BBB1BB8
S11308B051E107C0AA1FBB1FA617B70710F0A61B5C
S11308C0B70B881F991F5A95A9F780959095BC017D
S11308D0CD0108958F929F92AF92BF92CF92DF92F3
S11308E0EF92FF92CF93DF93EC01688179818A8143
S11308F09B81611571058105910521F464E279ED0F
S11309008BE597E02DE133EF41E050E00E94C40411
S113091049015A019B01AC01A7EAB1E40E94E30436
S11309206B017C01ACEEB4EFA50194010E94F104CB
S1130930DC01CB018C0D9D1DAE1DBF1DB7FF03C097
S11309400197A109B04888839983AA83BB839F77C1
S1130950DF91CF91FF90EF90DF90CF90BF90AF9059
S11309609F908F9008950C946A0480E090E20C9418
S11309706A04A0E0B0E08093002090930120A0934B
S11309800220B09303200895052E97FB1EF40094D3
S11309900E94DB0457FD07D00E94F60407FC03D035
S11309A04EF40C94DB0450954095309521953F4FBF
S11309B04F4F5F4F089590958095709561957F4F47
S11309C08F4F9F4F08950E941805A59F900DB49FC7
S11309D0900DA49F800D911D11240895B7FF0C94D0
S11309E0E3040E94E304821B930B0895A1E21A2EF0
S11309F0AA1BBB1BFD010DC0AA1FBB1FEE1FFF1FBF
S1130A00A217B307E407F50720F0A21BB30BE40B0E
S1130A10F50B661F771F881F991F1A9469F7609555
S1130A207095809590959B01AC01BD01CF0108950F
S1130A30A29FB001B39FC001A39F700D811D11241B
S1130A40911DB29F700D811D1124911D0895F8947C
S1050A50FFCFD2
S1090A5201000000080190
S9030000FC
