:100000000C94FE000C9424010C9424010C94240103
:100010000C9424010C9424010C9424010C942401CC
:100020000C9424010C9424010C9424010C942401BC
:100030000C9424010C9424010C9424010C942401AC
:100040000C9424010C9424010C9424010C9424019C
:100050000C9424010C9424010C9424010C9424018C
:100060000C9424010C9424010C9424010C9424017C
:100070000C9424010C9424010C9424010C9424016C
:100080000C9424010C9424010C9424010C9424015C
:100090000C9424010C9424010C9424010C9424014C
:1000A0000C9424010C9424010C9424010C9424013C
:1000B0000C9424010C9424010C9424010C9424012C
:1000C0000C9424010C9424010C9424010C9424011C
:1000D0000C9424010C9424010C9424010C9424010C
:1000E0000C9424010C9424010C9424010C942401FC
:1000F0000C9424010C9424010C9424010C942401EC
:100100000C9424010C9424010C9424010C942401DB
:100110000C9424010C9424010C9424010C942401CB
:100120000C9424010C9424010C9424010C942401BB
:100130000C9424010C9424010C9424010C942401AB
:100140000C9424010C9424010C9424010C9424019B
:100150000C9424010C9424010C9424010C9424018B
:100160000C9424010C9424010C9424010C9424017B
:100170000C9424010C9424010C9424010C9424016B
:100180000C9424010C9424010C9424010C9424015B
:100190000C9424010C9424010C9424010C9424014B
:1001A0000C9424010C9424010C9424010C9424013B
:1001B0000C9424010C9424010C9424010C9424012B
:1001C0000C9424010C9424010C9424010C9424011B
:1001D0000C9424010C9424010C9424010C9424010B
:1001E0000C9424010C9424010C9424010C942401FB
:1001F0000C9424010C9424010C94240111241FBE9E
:10020000CFEFCDBFDFE3DEBF00E00CBF18BE19BEED
:100210001ABE1BBE10E2A0E0B0E2E2E9FAE000E0A4
:100220000BBF02C007900D92A630B107D9F71BBED5
:1002300020E2A6E0B0E201C01D92A531B207E1F7CD
:100240000E945D030C9447050C9400001092000678
:1002500087E08093170610922006109240061092B5
:100260006006109280061092A0061092E00610928E
:1002700000071092200782E08093C0078093C40794
:100280001092E007109201021092020281E0809326
:1002900004028093200298E390932102809300024D
:1002A000089580910420853020F481E0809305201A
:1002B00012C09BEF980F943020F482E080930520C9
:1002C0000AC08950843020F483E08093052003C065
:1002D00084E08093052080910620882349F18FE7F0
:1002E000809300068091062080930406809105206B
:1002F000882351F080E096E09A95F1F700C08F5F77
:10030000909105208917B8F38FE7809307068091B5
:100310000520882351F080E096E09A95F1F700C01F
:100320008F5F909105208917B8F310920006089509
:1003300080910720882349F18FEF809320068091D8
:1003400007208093240680910520882351F080E0C7
:1003500096E09A95F1F700C08F5F9091052089177C
:10036000B8F38FEF8093270680910520882351F002
:1003700080E096E09A95F1F700C08F5F909105209C
:100380008917B8F3109220060895809108208823D9
:1003900049F18FEF809340068091082080934406B6
:1003A00080910520882351F080E096E09A95F1F73E
:1003B00000C08F5F909105208917B8F38FEF80936D
:1003C000470680910520882351F080E096E09A95B9
:1003D000F1F700C08F5F909105208917B8F3109254
:1003E0004006089580910920882349F18FEF80937A
:1003F00060068091092080936406809105208823FF
:1004000051F080E096E09A95F1F700C08F5F9091EF
:1004100005208917B8F38FEF809367068091052038
:10042000882351F080E096E09A95F1F700C08F5F45
:10043000909105208917B8F3109260060895809175
:100440000A20882349F18FEF8093800680910A204B
:100450008093840680910520882351F080E096E007
:100460009A95F1F700C08F5F909105208917B8F336
:100470008FEF8093870680910520882351F080E0DC
:1004800096E09A95F1F700C08F5F9091052089174B
:10049000B8F310928006089580910B20882349F1CB
:1004A0008FEF8093A00680910B208093A40680910B
:1004B0000520882351F080E096E09A95F1F700C07E
:1004C0008F5F909105208917B8F38FEF8093A7066F
:1004D00080910520882351F080E096E09A95F1F70D
:1004E00000C08F5F909105208917B8F31092A00685
:1004F000089580910C20882349F18FEF8093E006C6
:1005000080910C208093E40680910520882351F08F
:1005100080E096E09A95F1F700C08F5F90910520FA
:100520008917B8F38FEF8093E70680910520882321
:1005300051F080E096E09A95F1F700C08F5F9091BE
:1005400005208917B8F31092E006089580910D20D8
:10055000882349F18FEF8093000780910D208093CD
:10056000040780910520882351F080E096E09A9559
:10057000F1F700C08F5F909105208917B8F38FEFD6
:100580008093070780910520882351F080E096E052
:100590009A95F1F700C08F5F909105208917B8F305
:1005A00010920007089580910E20882349F18FEF63
:1005B0008093200780910E2080932407809105204E
:1005C000882351F080E096E09A95F1F700C08F5FA4
:1005D000909105208917B8F38FEF809327078091BA
:1005E0000520882351F080E096E09A95F1F700C04D
:1005F0008F5F909105208917B8F310922007089516
:1006000080910F20882361F18EEF8093C007809145
:100610000F208093C40780910520882351F080E04B
:1006200096E09A95F1F700C08F5F909105208917A9
:10063000B8F38FEF8093C70780910520882351F08E
:1006400080E096E09A95F1F700C08F5F90910520C9
:100650008917B8F382E08093C0078093C507089597
:1006600080911020882341F18FEF8093E0078091E3
:1006700010208093E40780910520882351F080E0CA
:1006800096E09A95F1F700C08F5F90910520891749
:10069000B8F38FEF8093E70780910520882351F00E
:1006A00080E096E09A95F1F700C08F5F9091052069
:1006B0008917B8F31092E00708950E94260101E11E
:1006C00010E20F2EFAE02F2E312CF02D6894AA2480
:1006D000A6F8B12C6894882487F8912C0F2EF8EC9A
:1006E000CF2EF7E0DF2EF02DC3E2D2E0E6E0F0E21D
:1006F0001192E017F107E1F70E94F704B1010E949F
:1007000062047C01811112C00E94F704F701FF27E7
:10071000EA5FFF4D67E070E00E946204250102C0BD
:10072000559447948A95E2F7408276C08FEF8E0DFC
:100730008830B0F40E94F704F701FF27EA5FFF4D0D
:1007400087709078992324F40197886F9F6F0196A2
:10075000340102C0759467948A95E2F760825CC0A8
:100760000E94F70481709078992324F401978E6F8A
:100770009F6F01960197D9F40E94F7047C010E94B3
:10078000F7049C01C70169E070E00E946204FC016B
:10079000EA5FFF4DC90167E070E00E9462049501C5
:1007A00002C0359527958A95E2F7208335C00E94CF
:1007B000F70481709078992324F401978E6F9F6FCE
:1007C00001960197A1F40E94F70481709078992313
:1007D00024F401978E6F9F6F0196E8E0F0E002C06D
:1007E000F595E7958A95E2F7E0930F2015C00E94F2
:1007F000F70481709078992324F401978E6F9F6F8E
:1008000001966894442441F8512C02C055944794B1
:100810008A95E2F740921020F601808180FD0DC09C
:1008200081E090E08093112090931220809113201A
:1008300090911420892B29F442C01092112010921B
:100840001220809111209091122080931320909378
:10085000142082E08093C507E0E2F2E080818068A6
:100860008083888180FFFDCF81E08883809124028E
:1008700090912502A0E0B0E0880F991FAA1FBB1F2E
:10088000880F991FAA1FBB1FAC01BD01440F551F44
:10089000661F771F440F551F661F771F2C013D01F0
:1008A000440E551E661E771EC301B2012FEF3FE0B6
:1008B00040E050E00E9476042093042017CF0E946D
:1008C0005101BFCF97FB072E16F4009407D077FD98
:1008D00009D00E94980407FC05D03EF490958195BC
:1008E0009F4F0895709561957F4F0895A1E21A2E4C
:1008F000AA1BBB1BFD010DC0AA1FBB1FEE1FFF1FC4
:10090000A217B307E407F50720F0A21BB30BE40B13
:10091000F50B661F771F881F991F1A9469F760955A
:100920007095809590959B01AC01BD01CF01089514
:10093000AA1BBB1B51E107C0AA1FBB1FA617B70705
:1009400010F0A61BB70B881F991F5A95A9F7809521
:100950009095BC01CD0108958F929F92AF92BF9266
:10096000CF92DF92EF92FF92CF93DF93EC016881F9
:1009700079818A819B81611571058105910521F439
:1009800064E279ED8BE597E02DE133EF41E050E053
:100990000E94060549015A019B01AC01A7EAB1E496
:1009A0000E9425056B017C01ACEEB4EFA50194011A
:1009B0000E943305DC01CB018C0D9D1DAE1DBF1DBA
:1009C000B7FF03C00197A109B04888839983AA8320
:1009D000BB839F77DF91CF91FF90EF90DF90CF9017
:1009E000BF90AF909F908F9008950C94AC0480E0DE
:1009F00090E20C94AC04A0E0B0E0809300209093CF
:100A00000120A0930220B09303200895052E97FBA8
:100A10001EF400940E941D0557FD07D00E94760425
:100A200007FC03D04EF40C941D055095409530956D
:100A300021953F4F4F4F5F4F08959095809570954A
:100A400061957F4F8F4F9F4F08950E943805A59F56
:100A5000900DB49F900DA49F800D911D11240895B9
:100A6000B7FF0C9425050E942505821B930B089562
:100A7000A29FB001B39FC001A39F700D811D1124DF
:100A8000911DB29F700D811D1124911D0895F89440
:020A9000FFCF96
:060A920001000000080154
:00000001FF
